{
  "_format": "hh-sol-artifact-1",
  "contractName": "WavePortal",
  "sourceName": "contracts/WavePortal.sol",
  "abi": [
    {
      "inputs": [],
      "stateMutability": "payable",
      "type": "constructor"
    },
    {
      "anonymous": false,
      "inputs": [
        {
          "indexed": true,
          "internalType": "address",
          "name": "from",
          "type": "address"
        },
        {
          "indexed": false,
          "internalType": "uint256",
          "name": "timestamp",
          "type": "uint256"
        },
        {
          "indexed": false,
          "internalType": "string",
          "name": "message",
          "type": "string"
        }
      ],
      "name": "NewWave",
      "type": "event"
    },
    {
      "inputs": [],
      "name": "getAllWaves",
      "outputs": [
        {
          "components": [
            {
              "internalType": "address",
              "name": "waver",
              "type": "address"
            },
            {
              "internalType": "string",
              "name": "message",
              "type": "string"
            },
            {
              "internalType": "uint256",
              "name": "timestamp",
              "type": "uint256"
            }
          ],
          "internalType": "struct WavePortal.Wave[]",
          "name": "",
          "type": "tuple[]"
        }
      ],
      "stateMutability": "view",
      "type": "function"
    },
    {
      "inputs": [],
      "name": "getTotalWaves",
      "outputs": [
        {
          "internalType": "uint256",
          "name": "",
          "type": "uint256"
        }
      ],
      "stateMutability": "view",
      "type": "function"
    },
    {
      "inputs": [
        {
          "internalType": "address",
          "name": "",
          "type": "address"
        }
      ],
      "name": "lastWaveAt",
      "outputs": [
        {
          "internalType": "uint256",
          "name": "",
          "type": "uint256"
        }
      ],
      "stateMutability": "view",
      "type": "function"
    },
    {
      "inputs": [
        {
          "internalType": "string",
          "name": "_message",
          "type": "string"
        }
      ],
      "name": "wave",
      "outputs": [],
      "stateMutability": "nonpayable",
      "type": "function"
    }
  ],
  "bytecode": "0x60806040526200004f6040518060400160405280601c81526020017f57617665506f7274616c202d20536d61727420436f6e747261637421000000008152506200007760201b620006cd1760201c565b606444426200005f91906200017c565b6200006b919062000208565b60018190555062000308565b62000117816040516024016200008e9190620002e4565b6040516020818303038152906040527f41304fac000000000000000000000000000000000000000000000000000000007bffffffffffffffffffffffffffffffffffffffffffffffffffffffff19166020820180517bffffffffffffffffffffffffffffffffffffffffffffffffffffffff83818316178352505050506200011a60201b60201c565b50565b60008151905060006a636f6e736f6c652e6c6f679050602083016000808483855afa5050505050565b6000819050919050565b7f4e487b7100000000000000000000000000000000000000000000000000000000600052601160045260246000fd5b6000620001898262000143565b9150620001968362000143565b9250827fffffffffffffffffffffffffffffffffffffffffffffffffffffffffffffffff03821115620001ce57620001cd6200014d565b5b828201905092915050565b7f4e487b7100000000000000000000000000000000000000000000000000000000600052601260045260246000fd5b6000620002158262000143565b9150620002228362000143565b925082620002355762000234620001d9565b5b828206905092915050565b600081519050919050565b600082825260208201905092915050565b60005b838110156200027c5780820151818401526020810190506200025f565b838111156200028c576000848401525b50505050565b6000601f19601f8301169050919050565b6000620002b08262000240565b620002bc81856200024b565b9350620002ce8185602086016200025c565b620002d98162000292565b840191505092915050565b60006020820190508181036000830152620003008184620002a3565b905092915050565b6112e780620003186000396000f3fe608060405234801561001057600080fd5b506004361061004c5760003560e01c8063449d46c0146100515780639a2cdc081461006d578063bd43a9081461008b578063cb199503146100a9575b600080fd5b61006b60048036038101906100669190610b63565b6100d9565b005b610075610519565b6040516100829190610bc5565b60405180910390f35b610093610564565b6040516100a09190610dca565b60405180910390f35b6100c360048036038101906100be9190610e18565b6106b5565b6040516100d09190610bc5565b60405180910390f35b42601e600360003373ffffffffffffffffffffffffffffffffffffffff1673ffffffffffffffffffffffffffffffffffffffff168152602001908152602001600020546101269190610e74565b10610166576040517f08c379a000000000000000000000000000000000000000000000000000000000815260040161015d90610f27565b60405180910390fd5b42600360003373ffffffffffffffffffffffffffffffffffffffff1673ffffffffffffffffffffffffffffffffffffffff1681526020019081526020016000208190555060016000808282546101bc9190610e74565b925050819055506102036040518060400160405280601681526020017f257320776176656420772f206d657373616765202573000000000000000000008152503383610766565b600260405180606001604052803373ffffffffffffffffffffffffffffffffffffffff16815260200183815260200142815250908060018154018082558091505060019003906000526020600020906003020160009091909190915060008201518160000160006101000a81548173ffffffffffffffffffffffffffffffffffffffff021916908373ffffffffffffffffffffffffffffffffffffffff16021790555060208201518160010190805190602001906102c2929190610966565b50604082015181600201555050606460015442446102e09190610e74565b6102ea9190610e74565b6102f49190610f76565b60018190555061033b6040518060400160405280601681526020017f52616e646f6d20232067656e6572617465643a20256400000000000000000000815250600154610805565b60326001541015610486576103856040518060400160405280600781526020017f257320776f6e2100000000000000000000000000000000000000000000000000815250336108a1565b6000655af3107a40009050478111156103d3576040517f08c379a00000000000000000000000000000000000000000000000000000000081526004016103ca90611019565b60405180910390fd5b60003373ffffffffffffffffffffffffffffffffffffffff16826040516103f99061106a565b60006040518083038185875af1925050503d8060008114610436576040519150601f19603f3d011682016040523d82523d6000602084013e61043b565b606091505b505090508061047f576040517f08c379a0000000000000000000000000000000000000000000000000000000008152600401610476906110f1565b60405180910390fd5b50506104c6565b6104c56040518060400160405280600f81526020017f257320646964206e6f742077696e2e0000000000000000000000000000000000815250336108a1565b5b3373ffffffffffffffffffffffffffffffffffffffff167f5f7e16dc676677766a70e9c5628aa6c54ddb8b6e5188e2ae1e1f17f1ffbea716428360405161050e92919061114a565b60405180910390a250565b600061055c6040518060400160405280601781526020017f5765206861766520256420746f74616c20776176657321000000000000000000815250600054610805565b600054905090565b60606002805480602002602001604051908101604052809291908181526020016000905b828210156106ac57838290600052602060002090600302016040518060600160405290816000820160009054906101000a900473ffffffffffffffffffffffffffffffffffffffff1673ffffffffffffffffffffffffffffffffffffffff1673ffffffffffffffffffffffffffffffffffffffff168152602001600182018054610611906111a9565b80601f016020809104026020016040519081016040528092919081815260200182805461063d906111a9565b801561068a5780601f1061065f5761010080835404028352916020019161068a565b820191906000526020600020905b81548152906001019060200180831161066d57829003601f168201915b5050505050815260200160028201548152505081526020019060010190610588565b50505050905090565b60036020528060005260406000206000915090505481565b610763816040516024016106e191906111db565b6040516020818303038152906040527f41304fac000000000000000000000000000000000000000000000000000000007bffffffffffffffffffffffffffffffffffffffffffffffffffffffff19166020820180517bffffffffffffffffffffffffffffffffffffffffffffffffffffffff838183161783525050505061093d565b50565b61080083838360405160240161077e9392919061120c565b6040516020818303038152906040527fe0e9ad4f000000000000000000000000000000000000000000000000000000007bffffffffffffffffffffffffffffffffffffffffffffffffffffffff19166020820180517bffffffffffffffffffffffffffffffffffffffffffffffffffffffff838183161783525050505061093d565b505050565b61089d828260405160240161081b929190611251565b6040516020818303038152906040527fb60e72cc000000000000000000000000000000000000000000000000000000007bffffffffffffffffffffffffffffffffffffffffffffffffffffffff19166020820180517bffffffffffffffffffffffffffffffffffffffffffffffffffffffff838183161783525050505061093d565b5050565b61093982826040516024016108b7929190611281565b6040516020818303038152906040527f319af333000000000000000000000000000000000000000000000000000000007bffffffffffffffffffffffffffffffffffffffffffffffffffffffff19166020820180517bffffffffffffffffffffffffffffffffffffffffffffffffffffffff838183161783525050505061093d565b5050565b60008151905060006a636f6e736f6c652e6c6f679050602083016000808483855afa5050505050565b828054610972906111a9565b90600052602060002090601f01602090048101928261099457600085556109db565b82601f106109ad57805160ff19168380011785556109db565b828001600101855582156109db579182015b828111156109da5782518255916020019190600101906109bf565b5b5090506109e891906109ec565b5090565b5b80821115610a055760008160009055506001016109ed565b5090565b6000604051905090565b600080fd5b600080fd5b600080fd5b600080fd5b6000601f19601f8301169050919050565b7f4e487b7100000000000000000000000000000000000000000000000000000000600052604160045260246000fd5b610a7082610a27565b810181811067ffffffffffffffff82111715610a8f57610a8e610a38565b5b80604052505050565b6000610aa2610a09565b9050610aae8282610a67565b919050565b600067ffffffffffffffff821115610ace57610acd610a38565b5b610ad782610a27565b9050602081019050919050565b82818337600083830152505050565b6000610b06610b0184610ab3565b610a98565b905082815260208101848484011115610b2257610b21610a22565b5b610b2d848285610ae4565b509392505050565b600082601f830112610b4a57610b49610a1d565b5b8135610b5a848260208601610af3565b91505092915050565b600060208284031215610b7957610b78610a13565b5b600082013567ffffffffffffffff811115610b9757610b96610a18565b5b610ba384828501610b35565b91505092915050565b6000819050919050565b610bbf81610bac565b82525050565b6000602082019050610bda6000830184610bb6565b92915050565b600081519050919050565b600082825260208201905092915050565b6000819050602082019050919050565b600073ffffffffffffffffffffffffffffffffffffffff82169050919050565b6000610c3782610c0c565b9050919050565b610c4781610c2c565b82525050565b600081519050919050565b600082825260208201905092915050565b60005b83811015610c87578082015181840152602081019050610c6c565b83811115610c96576000848401525b50505050565b6000610ca782610c4d565b610cb18185610c58565b9350610cc1818560208601610c69565b610cca81610a27565b840191505092915050565b610cde81610bac565b82525050565b6000606083016000830151610cfc6000860182610c3e565b5060208301518482036020860152610d148282610c9c565b9150506040830151610d296040860182610cd5565b508091505092915050565b6000610d408383610ce4565b905092915050565b6000602082019050919050565b6000610d6082610be0565b610d6a8185610beb565b935083602082028501610d7c85610bfc565b8060005b85811015610db85784840389528151610d998582610d34565b9450610da483610d48565b925060208a01995050600181019050610d80565b50829750879550505050505092915050565b60006020820190508181036000830152610de48184610d55565b905092915050565b610df581610c2c565b8114610e0057600080fd5b50565b600081359050610e1281610dec565b92915050565b600060208284031215610e2e57610e2d610a13565b5b6000610e3c84828501610e03565b91505092915050565b7f4e487b7100000000000000000000000000000000000000000000000000000000600052601160045260246000fd5b6000610e7f82610bac565b9150610e8a83610bac565b9250827fffffffffffffffffffffffffffffffffffffffffffffffffffffffffffffffff03821115610ebf57610ebe610e45565b5b828201905092915050565b600082825260208201905092915050565b7f576169742031356d000000000000000000000000000000000000000000000000600082015250565b6000610f11600883610eca565b9150610f1c82610edb565b602082019050919050565b60006020820190508181036000830152610f4081610f04565b9050919050565b7f4e487b7100000000000000000000000000000000000000000000000000000000600052601260045260246000fd5b6000610f8182610bac565b9150610f8c83610bac565b925082610f9c57610f9b610f47565b5b828206905092915050565b7f547279696e6720746f207769746864726177206d6f7265206d6f6e657920746860008201527f616e2074686520636f6e7472616374206861732e000000000000000000000000602082015250565b6000611003603483610eca565b915061100e82610fa7565b604082019050919050565b6000602082019050818103600083015261103281610ff6565b9050919050565b600081905092915050565b50565b6000611054600083611039565b915061105f82611044565b600082019050919050565b600061107582611047565b9150819050919050565b7f4661696c656420746f207769746864726177206d6f6e65792066726f6d20636f60008201527f6e74726163742e00000000000000000000000000000000000000000000000000602082015250565b60006110db602783610eca565b91506110e68261107f565b604082019050919050565b6000602082019050818103600083015261110a816110ce565b9050919050565b600061111c82610c4d565b6111268185610eca565b9350611136818560208601610c69565b61113f81610a27565b840191505092915050565b600060408201905061115f6000830185610bb6565b81810360208301526111718184611111565b90509392505050565b7f4e487b7100000000000000000000000000000000000000000000000000000000600052602260045260246000fd5b600060028204905060018216806111c157607f821691505b602082108114156111d5576111d461117a565b5b50919050565b600060208201905081810360008301526111f58184611111565b905092915050565b61120681610c2c565b82525050565b600060608201905081810360008301526112268186611111565b905061123560208301856111fd565b81810360408301526112478184611111565b9050949350505050565b6000604082019050818103600083015261126b8185611111565b905061127a6020830184610bb6565b9392505050565b6000604082019050818103600083015261129b8185611111565b90506112aa60208301846111fd565b939250505056fea264697066735822122070342a190f3da95ea5b7564d7c938274a2112ce72b66c34a962f7958ba16d40d64736f6c63430008090033",
  "linkReferences": {},
  "deployedLinkReferences": {}
}